{
    "_format": "hh-sol-artifact-1",
    "contractName": "WavePortal",
    "sourceName": "contracts/WavePortal.sol",
    "abi": [
        {
            "inputs": [],
            "stateMutability": "payable",
            "type": "constructor"
        },
        {
            "inputs": [],
            "name": "getTotalWaves",
            "outputs": [
                {
                    "internalType": "uint256",
                    "name": "",
                    "type": "uint256"
                }
            ],
            "stateMutability": "view",
            "type": "function"
        },
        {
            "inputs": [
                {
                    "internalType": "address",
                    "name": "_address",
                    "type": "address"
                }
            ],
            "name": "getWavesByAddress",
            "outputs": [
                {
                    "internalType": "uint256",
                    "name": "",
                    "type": "uint256"
                }
            ],
            "stateMutability": "view",
            "type": "function"
        },
        {
            "inputs": [],
            "name": "wave",
            "outputs": [],
            "stateMutability": "nonpayable",
            "type": "function"
        }
    ],
    "bytecode": "0x608060405261004c6040518060400160405280601c81526020017f57617665506f7274616c20636f6e7472616374206465706c6f7965640000000081525061005160201b6102611760201c565b6101d4565b6100ed816040516024016100659190610152565b6040516020818303038152906040527f41304fac000000000000000000000000000000000000000000000000000000007bffffffffffffffffffffffffffffffffffffffffffffffffffffffff19166020820180517bffffffffffffffffffffffffffffffffffffffffffffffffffffffff83818316178352505050506100f060201b60201c565b50565b60008151905060006a636f6e736f6c652e6c6f679050602083016000808483855afa5050505050565b600061012482610174565b61012e818561017f565b935061013e818560208601610190565b610147816101c3565b840191505092915050565b6000602082019050818103600083015261016c8184610119565b905092915050565b600081519050919050565b600082825260208201905092915050565b60005b838110156101ae578082015181840152602081019050610193565b838111156101bd576000848401525b50505050565b6000601f19601f8301169050919050565b6107d8806101e36000396000f3fe608060405234801561001057600080fd5b50600436106100415760003560e01c80636dfad43e146100465780636fe15b44146100765780639a2cdc0814610080575b600080fd5b610060600480360381019061005b919061050f565b61009e565b60405161006d919061064f565b60405180910390f35b61007e610166565b005b610088610216565b604051610095919061064f565b60405180910390f35b600061011f6040518060400160405280601581526020017f2573206861732077617665642025642074696d6573000000000000000000000081525083600160008673ffffffffffffffffffffffffffffffffffffffff1673ffffffffffffffffffffffffffffffffffffffff168152602001908152602001600020546102fa565b600160008373ffffffffffffffffffffffffffffffffffffffff1673ffffffffffffffffffffffffffffffffffffffff168152602001908152602001600020549050919050565b60016000808282546101789190610686565b925050819055506101be6040518060400160405280600e81526020017f257320686173207761766564212000000000000000000000000000000000000081525033610399565b60018060003373ffffffffffffffffffffffffffffffffffffffff1673ffffffffffffffffffffffffffffffffffffffff168152602001908152602001600020600082825461020d9190610686565b92505081905550565b60006102596040518060400160405280600e81526020017f546f74616c202564207761766573000000000000000000000000000000000000815250600054610435565b600054905090565b6102f781604051602401610275919061058f565b6040516020818303038152906040527f41304fac000000000000000000000000000000000000000000000000000000007bffffffffffffffffffffffffffffffffffffffffffffffffffffffff19166020820180517bffffffffffffffffffffffffffffffffffffffffffffffffffffffff83818316178352505050506104d1565b50565b610394838383604051602401610312939291906105e1565b6040516020818303038152906040527f07c81217000000000000000000000000000000000000000000000000000000007bffffffffffffffffffffffffffffffffffffffffffffffffffffffff19166020820180517bffffffffffffffffffffffffffffffffffffffffffffffffffffffff83818316178352505050506104d1565b505050565b61043182826040516024016103af9291906105b1565b6040516020818303038152906040527f319af333000000000000000000000000000000000000000000000000000000007bffffffffffffffffffffffffffffffffffffffffffffffffffffffff19166020820180517bffffffffffffffffffffffffffffffffffffffffffffffffffffffff83818316178352505050506104d1565b5050565b6104cd828260405160240161044b92919061061f565b6040516020818303038152906040527f9710a9d0000000000000000000000000000000000000000000000000000000007bffffffffffffffffffffffffffffffffffffffffffffffffffffffff19166020820180517bffffffffffffffffffffffffffffffffffffffffffffffffffffffff83818316178352505050506104d1565b5050565b60008151905060006a636f6e736f6c652e6c6f679050602083016000808483855afa5050505050565b6000813590506105098161078b565b92915050565b60006020828403121561052157600080fd5b600061052f848285016104fa565b91505092915050565b610541816106dc565b82525050565b60006105528261066a565b61055c8185610675565b935061056c818560208601610718565b6105758161077a565b840191505092915050565b6105898161070e565b82525050565b600060208201905081810360008301526105a98184610547565b905092915050565b600060408201905081810360008301526105cb8185610547565b90506105da6020830184610538565b9392505050565b600060608201905081810360008301526105fb8186610547565b905061060a6020830185610538565b6106176040830184610580565b949350505050565b600060408201905081810360008301526106398185610547565b90506106486020830184610580565b9392505050565b60006020820190506106646000830184610580565b92915050565b600081519050919050565b600082825260208201905092915050565b60006106918261070e565b915061069c8361070e565b9250827fffffffffffffffffffffffffffffffffffffffffffffffffffffffffffffffff038211156106d1576106d061074b565b5b828201905092915050565b60006106e7826106ee565b9050919050565b600073ffffffffffffffffffffffffffffffffffffffff82169050919050565b6000819050919050565b60005b8381101561073657808201518184015260208101905061071b565b83811115610745576000848401525b50505050565b7f4e487b7100000000000000000000000000000000000000000000000000000000600052601160045260246000fd5b6000601f19601f8301169050919050565b610794816106dc565b811461079f57600080fd5b5056fea2646970667358221220b4bfce13a1642fac2763aeac76baf30b1607505ddf9426fea1774372f92ac34f64736f6c63430008040033",
    "linkReferences": {},
    "deployedLinkReferences": {}
}