{
    "_format": "hh-sol-artifact-1",
    "contractName": "WavePortal",
    "sourceName": "contracts/WavePortal.sol",
    "abi": [
        {
            "inputs": [],
            "stateMutability": "payable",
            "type": "constructor"
        },
        {
            "anonymous": false,
            "inputs": [
                {
                    "indexed": true,
                    "internalType": "address",
                    "name": "from",
                    "type": "address"
                },
                {
                    "indexed": false,
                    "internalType": "uint256",
                    "name": "timestamp",
                    "type": "uint256"
                },
                {
                    "indexed": false,
                    "internalType": "string",
                    "name": "message",
                    "type": "string"
                }
            ],
            "name": "NewWave",
            "type": "event"
        },
        {
            "inputs": [],
            "name": "getAllWaves",
            "outputs": [
                {
                    "components": [
                        {
                            "internalType": "address",
                            "name": "from",
                            "type": "address"
                        },
                        {
                            "internalType": "uint256",
                            "name": "timestamp",
                            "type": "uint256"
                        },
                        {
                            "internalType": "string",
                            "name": "message",
                            "type": "string"
                        }
                    ],
                    "internalType": "struct WavePortal.Wave[]",
                    "name": "",
                    "type": "tuple[]"
                }
            ],
            "stateMutability": "view",
            "type": "function"
        },
        {
            "inputs": [],
            "name": "getTotalWaves",
            "outputs": [
                {
                    "internalType": "uint256",
                    "name": "",
                    "type": "uint256"
                }
            ],
            "stateMutability": "view",
            "type": "function"
        },
        {
            "inputs": [
                {
                    "internalType": "address",
                    "name": "_address",
                    "type": "address"
                }
            ],
            "name": "getWavesByAddress",
            "outputs": [
                {
                    "internalType": "uint256",
                    "name": "",
                    "type": "uint256"
                }
            ],
            "stateMutability": "view",
            "type": "function"
        },
        {
            "inputs": [
                {
                    "internalType": "string",
                    "name": "_message",
                    "type": "string"
                }
            ],
            "name": "wave",
            "outputs": [],
            "stateMutability": "nonpayable",
            "type": "function"
        }
    ],
    "bytecode": "0x60806040526200004f6040518060400160405280600a81526020017f49276d20616c69766521000000000000000000000000000000000000000000008152506200005560201b620005851760201c565b620001e9565b620000f5816040516024016200006c919062000162565b6040516020818303038152906040527f41304fac000000000000000000000000000000000000000000000000000000007bffffffffffffffffffffffffffffffffffffffffffffffffffffffff19166020820180517bffffffffffffffffffffffffffffffffffffffffffffffffffffffff8381831617835250505050620000f860201b60201c565b50565b60008151905060006a636f6e736f6c652e6c6f679050602083016000808483855afa5050505050565b60006200012e8262000186565b6200013a818562000191565b93506200014c818560208601620001a2565b6200015781620001d8565b840191505092915050565b600060208201905081810360008301526200017e818462000121565b905092915050565b600081519050919050565b600082825260208201905092915050565b60005b83811015620001c2578082015181840152602081019050620001a5565b83811115620001d2576000848401525b50505050565b6000601f19601f8301169050919050565b610e7a80620001f96000396000f3fe608060405234801561001057600080fd5b506004361061004c5760003560e01c8063449d46c0146100515780636dfad43e1461006d5780639a2cdc081461009d578063bd43a908146100bb575b600080fd5b61006b6004803603810190610066919061082f565b6100d9565b005b61008760048036038101906100829190610806565b610363565b6040516100949190610af4565b60405180910390f35b6100a561042b565b6040516100b29190610af4565b60405180910390f35b6100c3610434565b6040516100d09190610a52565b60405180910390f35b60016000808282546100eb9190610c06565b9250508190555060018060003373ffffffffffffffffffffffffffffffffffffffff1673ffffffffffffffffffffffffffffffffffffffff16815260200190815260200160002060008282546101419190610c06565b92505081905550600260405180606001604052803373ffffffffffffffffffffffffffffffffffffffff16815260200142815260200183815250908060018154018082558091505060019003906000526020600020906003020160009091909190915060008201518160000160006101000a81548173ffffffffffffffffffffffffffffffffffffffff021916908373ffffffffffffffffffffffffffffffffffffffff1602179055506020820151816001015560408201518160020190805190602001906102119291906106e6565b5050503373ffffffffffffffffffffffffffffffffffffffff167f5f7e16dc676677766a70e9c5628aa6c54ddb8b6e5188e2ae1e1f17f1ffbea716428360405161025c929190610b0f565b60405180910390a26000655af3107a40009050478111156102b2576040517f08c379a00000000000000000000000000000000000000000000000000000000081526004016102a990610ad4565b60405180910390fd5b60003373ffffffffffffffffffffffffffffffffffffffff16826040516102d890610a3d565b60006040518083038185875af1925050503d8060008114610315576040519150601f19603f3d011682016040523d82523d6000602084013e61031a565b606091505b505090508061035e576040517f08c379a000000000000000000000000000000000000000000000000000000000815260040161035590610ad4565b60405180910390fd5b505050565b60006103e46040518060400160405280601581526020017f2573206861732077617665642025642074696d6573000000000000000000000081525083600160008673ffffffffffffffffffffffffffffffffffffffff1673ffffffffffffffffffffffffffffffffffffffff1681526020019081526020016000205461061e565b600160008373ffffffffffffffffffffffffffffffffffffffff1673ffffffffffffffffffffffffffffffffffffffff168152602001908152602001600020549050919050565b60008054905090565b60606002805480602002602001604051908101604052809291908181526020016000905b8282101561057c57838290600052602060002090600302016040518060600160405290816000820160009054906101000a900473ffffffffffffffffffffffffffffffffffffffff1673ffffffffffffffffffffffffffffffffffffffff1673ffffffffffffffffffffffffffffffffffffffff168152602001600182015481526020016002820180546104eb90610cda565b80601f016020809104026020016040519081016040528092919081815260200182805461051790610cda565b80156105645780601f1061053957610100808354040283529160200191610564565b820191906000526020600020905b81548152906001019060200180831161054757829003601f168201915b50505050508152505081526020019060010190610458565b50505050905090565b61061b816040516024016105999190610a74565b6040516020818303038152906040527f41304fac000000000000000000000000000000000000000000000000000000007bffffffffffffffffffffffffffffffffffffffffffffffffffffffff19166020820180517bffffffffffffffffffffffffffffffffffffffffffffffffffffffff83818316178352505050506106bd565b50565b6106b883838360405160240161063693929190610a96565b6040516020818303038152906040527f07c81217000000000000000000000000000000000000000000000000000000007bffffffffffffffffffffffffffffffffffffffffffffffffffffffff19166020820180517bffffffffffffffffffffffffffffffffffffffffffffffffffffffff83818316178352505050506106bd565b505050565b60008151905060006a636f6e736f6c652e6c6f679050602083016000808483855afa5050505050565b8280546106f290610cda565b90600052602060002090601f016020900481019282610714576000855561075b565b82601f1061072d57805160ff191683800117855561075b565b8280016001018555821561075b579182015b8281111561075a57825182559160200191906001019061073f565b5b509050610768919061076c565b5090565b5b8082111561078557600081600090555060010161076d565b5090565b600061079c61079784610b64565b610b3f565b9050828152602081018484840111156107b457600080fd5b6107bf848285610c98565b509392505050565b6000813590506107d681610e2d565b92915050565b600082601f8301126107ed57600080fd5b81356107fd848260208601610789565b91505092915050565b60006020828403121561081857600080fd5b6000610826848285016107c7565b91505092915050565b60006020828403121561084157600080fd5b600082013567ffffffffffffffff81111561085b57600080fd5b610867848285016107dc565b91505092915050565b600061087c83836109cf565b905092915050565b61088d81610c5c565b82525050565b61089c81610c5c565b82525050565b60006108ad82610ba5565b6108b78185610bc8565b9350836020820285016108c985610b95565b8060005b8581101561090557848403895281516108e68582610870565b94506108f183610bbb565b925060208a019950506001810190506108cd565b50829750879550505050505092915050565b600061092282610bb0565b61092c8185610be4565b935061093c818560208601610ca7565b61094581610dca565b840191505092915050565b600061095b82610bb0565b6109658185610bf5565b9350610975818560208601610ca7565b61097e81610dca565b840191505092915050565b6000610996602a83610bf5565b91506109a182610ddb565b604082019050919050565b60006109b9600083610bd9565b91506109c482610e2a565b600082019050919050565b60006060830160008301516109e76000860182610884565b5060208301516109fa6020860182610a1f565b5060408301518482036040860152610a128282610917565b9150508091505092915050565b610a2881610c8e565b82525050565b610a3781610c8e565b82525050565b6000610a48826109ac565b9150819050919050565b60006020820190508181036000830152610a6c81846108a2565b905092915050565b60006020820190508181036000830152610a8e8184610950565b905092915050565b60006060820190508181036000830152610ab08186610950565b9050610abf6020830185610893565b610acc6040830184610a2e565b949350505050565b60006020820190508181036000830152610aed81610989565b9050919050565b6000602082019050610b096000830184610a2e565b92915050565b6000604082019050610b246000830185610a2e565b8181036020830152610b368184610950565b90509392505050565b6000610b49610b5a565b9050610b558282610d0c565b919050565b6000604051905090565b600067ffffffffffffffff821115610b7f57610b7e610d9b565b5b610b8882610dca565b9050602081019050919050565b6000819050602082019050919050565b600081519050919050565b600081519050919050565b6000602082019050919050565b600082825260208201905092915050565b600081905092915050565b600082825260208201905092915050565b600082825260208201905092915050565b6000610c1182610c8e565b9150610c1c83610c8e565b9250827fffffffffffffffffffffffffffffffffffffffffffffffffffffffffffffffff03821115610c5157610c50610d3d565b5b828201905092915050565b6000610c6782610c6e565b9050919050565b600073ffffffffffffffffffffffffffffffffffffffff82169050919050565b6000819050919050565b82818337600083830152505050565b60005b83811015610cc5578082015181840152602081019050610caa565b83811115610cd4576000848401525b50505050565b60006002820490506001821680610cf257607f821691505b60208210811415610d0657610d05610d6c565b5b50919050565b610d1582610dca565b810181811067ffffffffffffffff82111715610d3457610d33610d9b565b5b80604052505050565b7f4e487b7100000000000000000000000000000000000000000000000000000000600052601160045260246000fd5b7f4e487b7100000000000000000000000000000000000000000000000000000000600052602260045260246000fd5b7f4e487b7100000000000000000000000000000000000000000000000000000000600052604160045260246000fd5b6000601f19601f8301169050919050565b7f547279696e6720746f207769746864726177206d6f7265207468616e20636f6e60008201527f7472616374206861766500000000000000000000000000000000000000000000602082015250565b50565b610e3681610c5c565b8114610e4157600080fd5b5056fea2646970667358221220687e0a736d198ccb3f5506cff23cf40bd4ccd361167cf0aa5a1ae8c8b8055f4c64736f6c63430008040033",
    "linkReferences": {},
    "deployedLinkReferences": {}
}